:0300000002087281
:0C087200787FE4F6D8FD75810B020800C9
:10084F00E4FDFCC3ED9FEC9E5018E4FBFAC3EB9F55
:10085F00EA9E50070BBB00010A80F20DBD00010C90
:02086F0080E126
:010871002264
:10080000750AFE750B7FE4F508F509850A90E50A7F
:1008100025E0F50A7FC87E0012084F0509E509703A
:10082000020508C39407E508940040DFE4F583F56A
:1008300082C3E5829407E583940050C4850B90E55C
:0F0840000BC313F50B7FC87E0012084FA380E295
:00000001FF
